{
    "_format": "hh-sol-artifact-1",
    "contractName": "BetEthGame",
    "sourceName": "contracts/BetEthGame.sol",
    "abi": [
        {
            "inputs": [
                {
                    "internalType": "string",
                    "name": "tokenName",
                    "type": "string"
                },
                {
                    "internalType": "string",
                    "name": "tokenSymbol",
                    "type": "string"
                },
                {
                    "internalType": "uint256",
                    "name": "_purchaseRatio",
                    "type": "uint256"
                },
                {
                    "internalType": "uint256",
                    "name": "_betPrice",
                    "type": "uint256"
                },
                {
                    "internalType": "uint256",
                    "name": "_initialSupply",
                    "type": "uint256"
                }
            ],
            "stateMutability": "nonpayable",
            "type": "constructor"
        },
        {
            "inputs": [
                {
                    "internalType": "address",
                    "name": "owner",
                    "type": "address"
                }
            ],
            "name": "OwnableInvalidOwner",
            "type": "error"
        },
        {
            "inputs": [
                {
                    "internalType": "address",
                    "name": "account",
                    "type": "address"
                }
            ],
            "name": "OwnableUnauthorizedAccount",
            "type": "error"
        },
        {
            "anonymous": false,
            "inputs": [
                {
                    "indexed": true,
                    "internalType": "address",
                    "name": "previousOwner",
                    "type": "address"
                },
                {
                    "indexed": true,
                    "internalType": "address",
                    "name": "newOwner",
                    "type": "address"
                }
            ],
            "name": "OwnershipTransferred",
            "type": "event"
        },
        {
            "inputs": [
                {
                    "internalType": "address",
                    "name": "account",
                    "type": "address"
                }
            ],
            "name": "balanceOf",
            "outputs": [
                {
                    "internalType": "uint256",
                    "name": "",
                    "type": "uint256"
                }
            ],
            "stateMutability": "view",
            "type": "function"
        },
        {
            "inputs": [
                {
                    "internalType": "uint256",
                    "name": "_prediction",
                    "type": "uint256"
                }
            ],
            "name": "bet",
            "outputs": [],
            "stateMutability": "nonpayable",
            "type": "function"
        },
        {
            "inputs": [],
            "name": "betPrice",
            "outputs": [
                {
                    "internalType": "uint256",
                    "name": "",
                    "type": "uint256"
                }
            ],
            "stateMutability": "view",
            "type": "function"
        },
        {
            "inputs": [],
            "name": "bethEthToken",
            "outputs": [
                {
                    "internalType": "contract BethEthToken",
                    "name": "",
                    "type": "address"
                }
            ],
            "stateMutability": "view",
            "type": "function"
        },
        {
            "inputs": [],
            "name": "betsOpen",
            "outputs": [
                {
                    "internalType": "bool",
                    "name": "",
                    "type": "bool"
                }
            ],
            "stateMutability": "view",
            "type": "function"
        },
        {
            "inputs": [],
            "name": "closeBets",
            "outputs": [],
            "stateMutability": "nonpayable",
            "type": "function"
        },
        {
            "inputs": [],
            "name": "decimals",
            "outputs": [
                {
                    "internalType": "uint8",
                    "name": "",
                    "type": "uint8"
                }
            ],
            "stateMutability": "view",
            "type": "function"
        },
        {
            "inputs": [],
            "name": "getEthUsdPrice",
            "outputs": [
                {
                    "internalType": "uint256",
                    "name": "",
                    "type": "uint256"
                }
            ],
            "stateMutability": "view",
            "type": "function"
        },
        {
            "inputs": [],
            "name": "name",
            "outputs": [
                {
                    "internalType": "string",
                    "name": "",
                    "type": "string"
                }
            ],
            "stateMutability": "view",
            "type": "function"
        },
        {
            "inputs": [],
            "name": "openBets",
            "outputs": [],
            "stateMutability": "nonpayable",
            "type": "function"
        },
        {
            "inputs": [],
            "name": "owner",
            "outputs": [
                {
                    "internalType": "address",
                    "name": "",
                    "type": "address"
                }
            ],
            "stateMutability": "view",
            "type": "function"
        },
        {
            "inputs": [
                {
                    "internalType": "address",
                    "name": "",
                    "type": "address"
                }
            ],
            "name": "prize",
            "outputs": [
                {
                    "internalType": "uint256",
                    "name": "",
                    "type": "uint256"
                }
            ],
            "stateMutability": "view",
            "type": "function"
        },
        {
            "inputs": [],
            "name": "prizePool",
            "outputs": [
                {
                    "internalType": "uint256",
                    "name": "",
                    "type": "uint256"
                }
            ],
            "stateMutability": "view",
            "type": "function"
        },
        {
            "inputs": [
                {
                    "internalType": "uint256",
                    "name": "amount",
                    "type": "uint256"
                }
            ],
            "name": "prizeWithdraw",
            "outputs": [],
            "stateMutability": "nonpayable",
            "type": "function"
        },
        {
            "inputs": [],
            "name": "purchaseRatio",
            "outputs": [
                {
                    "internalType": "uint256",
                    "name": "",
                    "type": "uint256"
                }
            ],
            "stateMutability": "view",
            "type": "function"
        },
        {
            "inputs": [],
            "name": "purchaseTokens",
            "outputs": [],
            "stateMutability": "payable",
            "type": "function"
        },
        {
            "inputs": [],
            "name": "renounceOwnership",
            "outputs": [],
            "stateMutability": "nonpayable",
            "type": "function"
        },
        {
            "inputs": [
                {
                    "internalType": "uint256",
                    "name": "amount",
                    "type": "uint256"
                }
            ],
            "name": "returnTokens",
            "outputs": [],
            "stateMutability": "nonpayable",
            "type": "function"
        },
        {
            "inputs": [],
            "name": "setWinner",
            "outputs": [],
            "stateMutability": "nonpayable",
            "type": "function"
        },
        {
            "inputs": [],
            "name": "symbol",
            "outputs": [
                {
                    "internalType": "string",
                    "name": "",
                    "type": "string"
                }
            ],
            "stateMutability": "view",
            "type": "function"
        },
        {
            "inputs": [],
            "name": "totalSupply",
            "outputs": [
                {
                    "internalType": "uint256",
                    "name": "",
                    "type": "uint256"
                }
            ],
            "stateMutability": "view",
            "type": "function"
        },
        {
            "inputs": [
                {
                    "internalType": "address",
                    "name": "newOwner",
                    "type": "address"
                }
            ],
            "name": "transferOwnership",
            "outputs": [],
            "stateMutability": "nonpayable",
            "type": "function"
        },
        {
            "inputs": [],
            "name": "winner",
            "outputs": [
                {
                    "internalType": "address",
                    "name": "",
                    "type": "address"
                }
            ],
            "stateMutability": "view",
            "type": "function"
        }
    ],
    "bytecode": "0x60806040523480156200001157600080fd5b5060405162004c4a38038062004c4a83398181016040528101906200003791906200044a565b33600073ffffffffffffffffffffffffffffffffffffffff168173ffffffffffffffffffffffffffffffffffffffff1603620000ad5760006040517f1e4fbdf7000000000000000000000000000000000000000000000000000000008152600401620000a4919062000555565b60405180910390fd5b620000be81620001aa60201b60201c565b50848482604051620000d0906200026e565b620000de93929190620005e0565b604051809103906000f080158015620000fb573d6000803e3d6000fd5b50600360006101000a81548173ffffffffffffffffffffffffffffffffffffffff021916908373ffffffffffffffffffffffffffffffffffffffff160217905550826004819055508160068190555073694aa1769357215de4fac081bf1f309adc325306600160006101000a81548173ffffffffffffffffffffffffffffffffffffffff021916908373ffffffffffffffffffffffffffffffffffffffff16021790555050505050506200062b565b60008060009054906101000a900473ffffffffffffffffffffffffffffffffffffffff169050816000806101000a81548173ffffffffffffffffffffffffffffffffffffffff021916908373ffffffffffffffffffffffffffffffffffffffff1602179055508173ffffffffffffffffffffffffffffffffffffffff168173ffffffffffffffffffffffffffffffffffffffff167f8be0079c531659141344cd1fd0a4f28419497f9722a3daafe3b4186f6b6457e060405160405180910390a35050565b612706806200254483390190565b6000604051905090565b600080fd5b600080fd5b600080fd5b600080fd5b6000601f19601f8301169050919050565b7f4e487b7100000000000000000000000000000000000000000000000000000000600052604160045260246000fd5b620002e5826200029a565b810181811067ffffffffffffffff82111715620003075762000306620002ab565b5b80604052505050565b60006200031c6200027c565b90506200032a8282620002da565b919050565b600067ffffffffffffffff8211156200034d576200034c620002ab565b5b62000358826200029a565b9050602081019050919050565b60005b838110156200038557808201518184015260208101905062000368565b60008484015250505050565b6000620003a8620003a2846200032f565b62000310565b905082815260208101848484011115620003c757620003c662000295565b5b620003d484828562000365565b509392505050565b600082601f830112620003f457620003f362000290565b5b81516200040684826020860162000391565b91505092915050565b6000819050919050565b62000424816200040f565b81146200043057600080fd5b50565b600081519050620004448162000419565b92915050565b600080600080600060a0868803121562000469576200046862000286565b5b600086015167ffffffffffffffff8111156200048a57620004896200028b565b5b6200049888828901620003dc565b955050602086015167ffffffffffffffff811115620004bc57620004bb6200028b565b5b620004ca88828901620003dc565b9450506040620004dd8882890162000433565b9350506060620004f08882890162000433565b9250506080620005038882890162000433565b9150509295509295909350565b600073ffffffffffffffffffffffffffffffffffffffff82169050919050565b60006200053d8262000510565b9050919050565b6200054f8162000530565b82525050565b60006020820190506200056c600083018462000544565b92915050565b600081519050919050565b600082825260208201905092915050565b60006200059b8262000572565b620005a781856200057d565b9350620005b981856020860162000365565b620005c4816200029a565b840191505092915050565b620005da816200040f565b82525050565b60006060820190508181036000830152620005fc81866200058e565b905081810360208301526200061281856200058e565b9050620006236040830184620005cf565b949350505050565b611f09806200063b6000396000f3fe6080604052600436106101405760003560e01c8063886e3437116100b6578063c2c3041d1161006f578063c2c3041d146103f5578063cfd8a1751461040c578063d1b258ff14610437578063dfbf53ae14610462578063ed05084e1461048d578063f2fde38b146104a457610140565b8063886e3437146102f55780638adf9c1f1461030c5780638da5cb5b1461034957806395cadc471461037457806395d89b411461039f578063a0a8045e146103ca57610140565b80633cc121e6116101085780633cc121e6146101f9578063451476bd1461022257806370a082311461024d578063715018a61461028a578063719ce73e146102a15780637365870b146102cc57610140565b806306fdde031461014557806318160ddd14610170578063313ce5671461019b5780633290ce29146101c65780633ae1786f146101d0575b600080fd5b34801561015157600080fd5b5061015a6104cd565b60405161016791906114a8565b60405180910390f35b34801561017c57600080fd5b5061018561056a565b60405161019291906114e3565b60405180910390f35b3480156101a757600080fd5b506101b0610602565b6040516101bd919061151a565b60405180910390f35b6101ce61069a565b005b3480156101dc57600080fd5b506101f760048036038101906101f29190611575565b610738565b005b34801561020557600080fd5b50610220600480360381019061021b9190611575565b61081e565b005b34801561022e57600080fd5b50610237610999565b6040516102449190611621565b60405180910390f35b34801561025957600080fd5b50610274600480360381019061026f919061167a565b6109bf565b60405161028191906114e3565b60405180910390f35b34801561029657600080fd5b5061029f610a64565b005b3480156102ad57600080fd5b506102b6610a78565b6040516102c391906114e3565b60405180910390f35b3480156102d857600080fd5b506102f360048036038101906102ee9190611575565b610a7e565b005b34801561030157600080fd5b5061030a610d1e565b005b34801561031857600080fd5b50610333600480360381019061032e919061167a565b610de1565b60405161034091906114e3565b60405180910390f35b34801561035557600080fd5b5061035e610df9565b60405161036b91906116b6565b60405180910390f35b34801561038057600080fd5b50610389610e22565b60405161039691906114e3565b60405180910390f35b3480156103ab57600080fd5b506103b4610e28565b6040516103c191906114a8565b60405180910390f35b3480156103d657600080fd5b506103df610ec5565b6040516103ec91906114e3565b60405180910390f35b34801561040157600080fd5b5061040a610f7b565b005b34801561041857600080fd5b50610421610ff0565b60405161042e91906114e3565b60405180910390f35b34801561044357600080fd5b5061044c610ff6565b60405161045991906116ec565b60405180910390f35b34801561046e57600080fd5b50610477611009565b60405161048491906116b6565b60405180910390f35b34801561049957600080fd5b506104a261102f565b005b3480156104b057600080fd5b506104cb60048036038101906104c6919061167a565b6111c1565b005b6060600360009054906101000a900473ffffffffffffffffffffffffffffffffffffffff1673ffffffffffffffffffffffffffffffffffffffff166306fdde036040518163ffffffff1660e01b8152600401600060405180830381865afa15801561053c573d6000803e3d6000fd5b505050506040513d6000823e3d601f19601f82011682018060405250810190610565919061182d565b905090565b6000600360009054906101000a900473ffffffffffffffffffffffffffffffffffffffff1673ffffffffffffffffffffffffffffffffffffffff166318160ddd6040518163ffffffff1660e01b8152600401602060405180830381865afa1580156105d9573d6000803e3d6000fd5b505050506040513d601f19601f820116820180604052508101906105fd919061188b565b905090565b6000600360009054906101000a900473ffffffffffffffffffffffffffffffffffffffff1673ffffffffffffffffffffffffffffffffffffffff1663313ce5676040518163ffffffff1660e01b8152600401602060405180830381865afa158015610671573d6000803e3d6000fd5b505050506040513d601f19601f8201168201806040525081019061069591906118e4565b905090565b600360009054906101000a900473ffffffffffffffffffffffffffffffffffffffff1673ffffffffffffffffffffffffffffffffffffffff166340c10f1933600454346106e79190611940565b6040518363ffffffff1660e01b8152600401610704929190611982565b600060405180830381600087803b15801561071e57600080fd5b505af1158015610732573d6000803e3d6000fd5b50505050565b600360009054906101000a900473ffffffffffffffffffffffffffffffffffffffff1673ffffffffffffffffffffffffffffffffffffffff166379cc679033836040518363ffffffff1660e01b8152600401610795929190611982565b600060405180830381600087803b1580156107af57600080fd5b505af11580156107c3573d6000803e3d6000fd5b505050503373ffffffffffffffffffffffffffffffffffffffff166108fc600454836107ef91906119da565b9081150290604051600060405180830381858888f1935050505015801561081a573d6000803e3d6000fd5b5050565b600554811115610863576040517f08c379a000000000000000000000000000000000000000000000000000000000815260040161085a90611a57565b60405180910390fd5b600960009054906101000a900473ffffffffffffffffffffffffffffffffffffffff1673ffffffffffffffffffffffffffffffffffffffff163373ffffffffffffffffffffffffffffffffffffffff16146108f3576040517f08c379a00000000000000000000000000000000000000000000000000000000081526004016108ea90611ac3565b60405180910390fd5b600360009054906101000a900473ffffffffffffffffffffffffffffffffffffffff1673ffffffffffffffffffffffffffffffffffffffff1663a9059cbb336005546040518363ffffffff1660e01b8152600401610952929190611982565b6020604051808303816000875af1158015610971573d6000803e3d6000fd5b505050506040513d601f19601f820116820180604052508101906109959190611b0f565b5050565b600360009054906101000a900473ffffffffffffffffffffffffffffffffffffffff1681565b6000600360009054906101000a900473ffffffffffffffffffffffffffffffffffffffff1673ffffffffffffffffffffffffffffffffffffffff166370a08231836040518263ffffffff1660e01b8152600401610a1c91906116b6565b602060405180830381865afa158015610a39573d6000803e3d6000fd5b505050506040513d601f19601f82011682018060405250810190610a5d919061188b565b9050919050565b610a6c611247565b610a7660006112ce565b565b60055481565b600760009054906101000a900460ff16610acd576040517f08c379a0000000000000000000000000000000000000000000000000000000008152600401610ac490611b88565b60405180910390fd5b60013073ffffffffffffffffffffffffffffffffffffffff166370a08231336040518263ffffffff1660e01b8152600401610b0891906116b6565b602060405180830381865afa158015610b25573d6000803e3d6000fd5b505050506040513d601f19601f82011682018060405250810190610b49919061188b565b11610b89576040517f08c379a0000000000000000000000000000000000000000000000000000000008152600401610b8090611c1a565b60405180910390fd5b60065460056000828254610b9d9190611c3a565b92505081905550600260405180606001604052803373ffffffffffffffffffffffffffffffffffffffff16815260200183815260200160011515815250908060018154018082558091505060019003906000526020600020906003020160009091909190915060008201518160000160006101000a81548173ffffffffffffffffffffffffffffffffffffffff021916908373ffffffffffffffffffffffffffffffffffffffff1602179055506020820151816001015560408201518160020160006101000a81548160ff0219169083151502179055505050600360009054906101000a900473ffffffffffffffffffffffffffffffffffffffff1673ffffffffffffffffffffffffffffffffffffffff166323b872dd33306006546040518463ffffffff1660e01b8152600401610cd793929190611c6e565b6020604051808303816000875af1158015610cf6573d6000803e3d6000fd5b505050506040513d601f19601f82011682018060405250810190610d1a9190611b0f565b5050565b610d26611247565b600760009054906101000a900460ff16610d75576040517f08c379a0000000000000000000000000000000000000000000000000000000008152600401610d6c90611b88565b60405180910390fd5b600760009054906101000a900460ff16610dc4576040517f08c379a0000000000000000000000000000000000000000000000000000000008152600401610dbb90611cf1565b60405180910390fd5b6000600760006101000a81548160ff021916908315150217905550565b60086020528060005260406000206000915090505481565b60008060009054906101000a900473ffffffffffffffffffffffffffffffffffffffff16905090565b60045481565b6060600360009054906101000a900473ffffffffffffffffffffffffffffffffffffffff1673ffffffffffffffffffffffffffffffffffffffff166395d89b416040518163ffffffff1660e01b8152600401600060405180830381865afa158015610e97573d6000803e3d6000fd5b505050506040513d6000823e3d601f19601f82011682018060405250810190610ec0919061182d565b905090565b600080600160009054906101000a900473ffffffffffffffffffffffffffffffffffffffff1673ffffffffffffffffffffffffffffffffffffffff1663feaf968c6040518163ffffffff1660e01b815260040160a060405180830381865afa158015610f35573d6000803e3d6000fd5b505050506040513d601f19601f82011682018060405250810190610f599190611d89565b50505091505060006305f5e10082610f7191906119da565b9050809250505090565b610f83611247565b600760009054906101000a900460ff1615610fd3576040517f08c379a0000000000000000000000000000000000000000000000000000000008152600401610fca90611e50565b60405180910390fd5b6001600760006101000a81548160ff021916908315150217905550565b60065481565b600760009054906101000a900460ff1681565b600960009054906101000a900473ffffffffffffffffffffffffffffffffffffffff1681565b611037611247565b600760009054906101000a900460ff1615611087576040517f08c379a000000000000000000000000000000000000000000000000000000000815260040161107e90611e50565b60405180910390fd5b6000611091610ec5565b9050600080670de0b6b3a763ffff905060008080600090505b60028054905081101561112557600281815481106110cb576110ca611e70565b5b9060005260206000209060030201600101549150858210156110fa5781866110f39190611e9f565b9450611109565b85826111069190611e9f565b94505b81841115611118578193508092505b80806001019150506110aa565b506002828154811061113a57611139611e70565b5b906000526020600020906003020160000160009054906101000a900473ffffffffffffffffffffffffffffffffffffffff16600960006101000a81548173ffffffffffffffffffffffffffffffffffffffff021916908373ffffffffffffffffffffffffffffffffffffffff160217905550600260006111ba919061139a565b5050505050565b6111c9611247565b600073ffffffffffffffffffffffffffffffffffffffff168173ffffffffffffffffffffffffffffffffffffffff160361123b5760006040517f1e4fbdf700000000000000000000000000000000000000000000000000000000815260040161123291906116b6565b60405180910390fd5b611244816112ce565b50565b61124f611392565b73ffffffffffffffffffffffffffffffffffffffff1661126d610df9565b73ffffffffffffffffffffffffffffffffffffffff16146112cc57611290611392565b6040517f118cdaa70000000000000000000000000000000000000000000000000000000081526004016112c391906116b6565b60405180910390fd5b565b60008060009054906101000a900473ffffffffffffffffffffffffffffffffffffffff169050816000806101000a81548173ffffffffffffffffffffffffffffffffffffffff021916908373ffffffffffffffffffffffffffffffffffffffff1602179055508173ffffffffffffffffffffffffffffffffffffffff168173ffffffffffffffffffffffffffffffffffffffff167f8be0079c531659141344cd1fd0a4f28419497f9722a3daafe3b4186f6b6457e060405160405180910390a35050565b600033905090565b50805460008255600302906000526020600020908101906113bb91906113be565b50565b5b8082111561141457600080820160006101000a81549073ffffffffffffffffffffffffffffffffffffffff021916905560018201600090556002820160006101000a81549060ff0219169055506003016113bf565b5090565b600081519050919050565b600082825260208201905092915050565b60005b83811015611452578082015181840152602081019050611437565b60008484015250505050565b6000601f19601f8301169050919050565b600061147a82611418565b6114848185611423565b9350611494818560208601611434565b61149d8161145e565b840191505092915050565b600060208201905081810360008301526114c2818461146f565b905092915050565b6000819050919050565b6114dd816114ca565b82525050565b60006020820190506114f860008301846114d4565b92915050565b600060ff82169050919050565b611514816114fe565b82525050565b600060208201905061152f600083018461150b565b92915050565b6000604051905090565b600080fd5b600080fd5b611552816114ca565b811461155d57600080fd5b50565b60008135905061156f81611549565b92915050565b60006020828403121561158b5761158a61153f565b5b600061159984828501611560565b91505092915050565b600073ffffffffffffffffffffffffffffffffffffffff82169050919050565b6000819050919050565b60006115e76115e26115dd846115a2565b6115c2565b6115a2565b9050919050565b60006115f9826115cc565b9050919050565b600061160b826115ee565b9050919050565b61161b81611600565b82525050565b60006020820190506116366000830184611612565b92915050565b6000611647826115a2565b9050919050565b6116578161163c565b811461166257600080fd5b50565b6000813590506116748161164e565b92915050565b6000602082840312156116905761168f61153f565b5b600061169e84828501611665565b91505092915050565b6116b08161163c565b82525050565b60006020820190506116cb60008301846116a7565b92915050565b60008115159050919050565b6116e6816116d1565b82525050565b600060208201905061170160008301846116dd565b92915050565b600080fd5b600080fd5b7f4e487b7100000000000000000000000000000000000000000000000000000000600052604160045260246000fd5b6117498261145e565b810181811067ffffffffffffffff8211171561176857611767611711565b5b80604052505050565b600061177b611535565b90506117878282611740565b919050565b600067ffffffffffffffff8211156117a7576117a6611711565b5b6117b08261145e565b9050602081019050919050565b60006117d06117cb8461178c565b611771565b9050828152602081018484840111156117ec576117eb61170c565b5b6117f7848285611434565b509392505050565b600082601f83011261181457611813611707565b5b81516118248482602086016117bd565b91505092915050565b6000602082840312156118435761184261153f565b5b600082015167ffffffffffffffff81111561186157611860611544565b5b61186d848285016117ff565b91505092915050565b60008151905061188581611549565b92915050565b6000602082840312156118a1576118a061153f565b5b60006118af84828501611876565b91505092915050565b6118c1816114fe565b81146118cc57600080fd5b50565b6000815190506118de816118b8565b92915050565b6000602082840312156118fa576118f961153f565b5b6000611908848285016118cf565b91505092915050565b7f4e487b7100000000000000000000000000000000000000000000000000000000600052601160045260246000fd5b600061194b826114ca565b9150611956836114ca565b9250828202611964816114ca565b9150828204841483151761197b5761197a611911565b5b5092915050565b600060408201905061199760008301856116a7565b6119a460208301846114d4565b9392505050565b7f4e487b7100000000000000000000000000000000000000000000000000000000600052601260045260246000fd5b60006119e5826114ca565b91506119f0836114ca565b925082611a00576119ff6119ab565b5b828204905092915050565b7f4e6f7420656e6f756768207072697a6500000000000000000000000000000000600082015250565b6000611a41601083611423565b9150611a4c82611a0b565b602082019050919050565b60006020820190508181036000830152611a7081611a34565b9050919050565b7f596f7520617265206e6f74207468652077696e6e657221000000000000000000600082015250565b6000611aad601783611423565b9150611ab882611a77565b602082019050919050565b60006020820190508181036000830152611adc81611aa0565b9050919050565b611aec816116d1565b8114611af757600080fd5b50565b600081519050611b0981611ae3565b92915050565b600060208284031215611b2557611b2461153f565b5b6000611b3384828501611afa565b91505092915050565b7f426574732061726520636c6f7365640000000000000000000000000000000000600082015250565b6000611b72600f83611423565b9150611b7d82611b3c565b602082019050919050565b60006020820190508181036000830152611ba181611b65565b9050919050565b7f506c6561736520707572636861736520746f6b656e7320666972737420746f2060008201527f706c617921000000000000000000000000000000000000000000000000000000602082015250565b6000611c04602583611423565b9150611c0f82611ba8565b604082019050919050565b60006020820190508181036000830152611c3381611bf7565b9050919050565b6000611c45826114ca565b9150611c50836114ca565b9250828201905080821115611c6857611c67611911565b5b92915050565b6000606082019050611c8360008301866116a7565b611c9060208301856116a7565b611c9d60408301846114d4565b949350505050565b7f4265747320616c726561647920636c6f73656400000000000000000000000000600082015250565b6000611cdb601383611423565b9150611ce682611ca5565b602082019050919050565b60006020820190508181036000830152611d0a81611cce565b9050919050565b600069ffffffffffffffffffff82169050919050565b611d3081611d11565b8114611d3b57600080fd5b50565b600081519050611d4d81611d27565b92915050565b6000819050919050565b611d6681611d53565b8114611d7157600080fd5b50565b600081519050611d8381611d5d565b92915050565b600080600080600060a08688031215611da557611da461153f565b5b6000611db388828901611d3e565b9550506020611dc488828901611d74565b9450506040611dd588828901611876565b9350506060611de688828901611876565b9250506080611df788828901611d3e565b9150509295509295909350565b7f4265747320617265206f70656e00000000000000000000000000000000000000600082015250565b6000611e3a600d83611423565b9150611e4582611e04565b602082019050919050565b60006020820190508181036000830152611e6981611e2d565b9050919050565b7f4e487b7100000000000000000000000000000000000000000000000000000000600052603260045260246000fd5b6000611eaa826114ca565b9150611eb5836114ca565b9250828203905081811115611ecd57611ecc611911565b5b9291505056fea2646970667358221220274a7efbd6855dade978b61cd6b48a94b6f0b32dcf4f23040555e3df74bbe02764736f6c6343000818003360806040523480156200001157600080fd5b5060405162002706380380620027068339818101604052810190620000379190620006c5565b828281600390816200004a9190620009a0565b5080600490816200005c9190620009a0565b505050620000713382620000c360201b60201c565b620000866000801b336200015060201b60201c565b50620000b97f9f2df0fed2c77648de5860a4cc508cd0818c85b8b8a1ab4ceeef8d981c8956a6336200015060201b60201c565b5050505062000bbe565b600073ffffffffffffffffffffffffffffffffffffffff168273ffffffffffffffffffffffffffffffffffffffff1603620001385760006040517fec442f050000000000000000000000000000000000000000000000000000000081526004016200012f919062000acc565b60405180910390fd5b6200014c600083836200025460201b60201c565b5050565b60006200016483836200048460201b60201c565b620002495760016005600085815260200190815260200160002060000160008473ffffffffffffffffffffffffffffffffffffffff1673ffffffffffffffffffffffffffffffffffffffff16815260200190815260200160002060006101000a81548160ff021916908315150217905550620001e5620004ef60201b60201c565b73ffffffffffffffffffffffffffffffffffffffff168273ffffffffffffffffffffffffffffffffffffffff16847f2f8788117e7eff1d82e926ec794901d17c78024a50270940304540a733656f0d60405160405180910390a4600190506200024e565b600090505b92915050565b600073ffffffffffffffffffffffffffffffffffffffff168373ffffffffffffffffffffffffffffffffffffffff1603620002aa5780600260008282546200029d919062000b18565b9250508190555062000380565b60008060008573ffffffffffffffffffffffffffffffffffffffff1673ffffffffffffffffffffffffffffffffffffffff1681526020019081526020016000205490508181101562000339578381836040517fe450d38c000000000000000000000000000000000000000000000000000000008152600401620003309392919062000b64565b60405180910390fd5b8181036000808673ffffffffffffffffffffffffffffffffffffffff1673ffffffffffffffffffffffffffffffffffffffff16815260200190815260200160002081905550505b600073ffffffffffffffffffffffffffffffffffffffff168273ffffffffffffffffffffffffffffffffffffffff1603620003cb578060026000828254039250508190555062000418565b806000808473ffffffffffffffffffffffffffffffffffffffff1673ffffffffffffffffffffffffffffffffffffffff168152602001908152602001600020600082825401925050819055505b8173ffffffffffffffffffffffffffffffffffffffff168373ffffffffffffffffffffffffffffffffffffffff167fddf252ad1be2c89b69c2b068fc378daa952ba7f163c4a11628f55a4df523b3ef8360405162000477919062000ba1565b60405180910390a3505050565b60006005600084815260200190815260200160002060000160008373ffffffffffffffffffffffffffffffffffffffff1673ffffffffffffffffffffffffffffffffffffffff16815260200190815260200160002060009054906101000a900460ff16905092915050565b600033905090565b6000604051905090565b600080fd5b600080fd5b600080fd5b600080fd5b6000601f19601f8301169050919050565b7f4e487b7100000000000000000000000000000000000000000000000000000000600052604160045260246000fd5b620005608262000515565b810181811067ffffffffffffffff8211171562000582576200058162000526565b5b80604052505050565b600062000597620004f7565b9050620005a5828262000555565b919050565b600067ffffffffffffffff821115620005c857620005c762000526565b5b620005d38262000515565b9050602081019050919050565b60005b8381101562000600578082015181840152602081019050620005e3565b60008484015250505050565b6000620006236200061d84620005aa565b6200058b565b90508281526020810184848401111562000642576200064162000510565b5b6200064f848285620005e0565b509392505050565b600082601f8301126200066f576200066e6200050b565b5b8151620006818482602086016200060c565b91505092915050565b6000819050919050565b6200069f816200068a565b8114620006ab57600080fd5b50565b600081519050620006bf8162000694565b92915050565b600080600060608486031215620006e157620006e062000501565b5b600084015167ffffffffffffffff81111562000702576200070162000506565b5b620007108682870162000657565b935050602084015167ffffffffffffffff81111562000734576200073362000506565b5b620007428682870162000657565b92505060406200075586828701620006ae565b9150509250925092565b600081519050919050565b7f4e487b7100000000000000000000000000000000000000000000000000000000600052602260045260246000fd5b60006002820490506001821680620007b257607f821691505b602082108103620007c857620007c76200076a565b5b50919050565b60008190508160005260206000209050919050565b60006020601f8301049050919050565b600082821b905092915050565b600060088302620008327fffffffffffffffffffffffffffffffffffffffffffffffffffffffffffffffff82620007f3565b6200083e8683620007f3565b95508019841693508086168417925050509392505050565b6000819050919050565b6000620008816200087b62000875846200068a565b62000856565b6200068a565b9050919050565b6000819050919050565b6200089d8362000860565b620008b5620008ac8262000888565b84845462000800565b825550505050565b600090565b620008cc620008bd565b620008d981848462000892565b505050565b5b818110156200090157620008f5600082620008c2565b600181019050620008df565b5050565b601f82111562000950576200091a81620007ce565b6200092584620007e3565b8101602085101562000935578190505b6200094d6200094485620007e3565b830182620008de565b50505b505050565b600082821c905092915050565b6000620009756000198460080262000955565b1980831691505092915050565b600062000990838362000962565b9150826002028217905092915050565b620009ab826200075f565b67ffffffffffffffff811115620009c757620009c662000526565b5b620009d3825462000799565b620009e082828562000905565b600060209050601f83116001811462000a18576000841562000a03578287015190505b62000a0f858262000982565b86555062000a7f565b601f19841662000a2886620007ce565b60005b8281101562000a525784890151825560018201915060208501945060208101905062000a2b565b8683101562000a72578489015162000a6e601f89168262000962565b8355505b6001600288020188555050505b505050505050565b600073ffffffffffffffffffffffffffffffffffffffff82169050919050565b600062000ab48262000a87565b9050919050565b62000ac68162000aa7565b82525050565b600060208201905062000ae3600083018462000abb565b92915050565b7f4e487b7100000000000000000000000000000000000000000000000000000000600052601160045260246000fd5b600062000b25826200068a565b915062000b32836200068a565b925082820190508082111562000b4d5762000b4c62000ae9565b5b92915050565b62000b5e816200068a565b82525050565b600060608201905062000b7b600083018662000abb565b62000b8a602083018562000b53565b62000b99604083018462000b53565b949350505050565b600060208201905062000bb8600083018462000b53565b92915050565b611b388062000bce6000396000f3fe60806040526004361061012a5760003560e01c806342966c68116100ab578063a217fddf1161006f578063a217fddf14610416578063a9059cbb14610441578063d0febe4c1461047e578063d539139314610488578063d547741f146104b3578063dd62ed3e146104dc5761012a565b806342966c681461031f57806370a082311461034857806379cc67901461038557806391d14854146103ae57806395d89b41146103eb5761012a565b8063248a9ca3116100f2578063248a9ca31461023c5780632f2ff15d14610279578063313ce567146102a257806336568abe146102cd57806340c10f19146102f65761012a565b806301ffc9a71461012f57806306fdde031461016c578063095ea7b31461019757806318160ddd146101d457806323b872dd146101ff575b600080fd5b34801561013b57600080fd5b5061015660048036038101906101519190611479565b610519565b60405161016391906114c1565b60405180910390f35b34801561017857600080fd5b50610181610593565b60405161018e919061156c565b60405180910390f35b3480156101a357600080fd5b506101be60048036038101906101b99190611622565b610625565b6040516101cb91906114c1565b60405180910390f35b3480156101e057600080fd5b506101e9610648565b6040516101f69190611671565b60405180910390f35b34801561020b57600080fd5b506102266004803603810190610221919061168c565b610652565b60405161023391906114c1565b60405180910390f35b34801561024857600080fd5b50610263600480360381019061025e9190611715565b610681565b6040516102709190611751565b60405180910390f35b34801561028557600080fd5b506102a0600480360381019061029b919061176c565b6106a1565b005b3480156102ae57600080fd5b506102b76106c3565b6040516102c491906117c8565b60405180910390f35b3480156102d957600080fd5b506102f460048036038101906102ef919061176c565b6106cc565b005b34801561030257600080fd5b5061031d60048036038101906103189190611622565b610747565b005b34801561032b57600080fd5b50610346600480360381019061034191906117e3565b6107ef565b005b34801561035457600080fd5b5061036f600480360381019061036a9190611810565b610803565b60405161037c9190611671565b60405180910390f35b34801561039157600080fd5b506103ac60048036038101906103a79190611622565b61084b565b005b3480156103ba57600080fd5b506103d560048036038101906103d0919061176c565b61086b565b6040516103e291906114c1565b60405180910390f35b3480156103f757600080fd5b506104006108d6565b60405161040d919061156c565b60405180910390f35b34801561042257600080fd5b5061042b610968565b6040516104389190611751565b60405180910390f35b34801561044d57600080fd5b5061046860048036038101906104639190611622565b61096f565b60405161047591906114c1565b60405180910390f35b610486610992565b005b34801561049457600080fd5b5061049d6109f9565b6040516104aa9190611751565b60405180910390f35b3480156104bf57600080fd5b506104da60048036038101906104d5919061176c565b610a1d565b005b3480156104e857600080fd5b5061050360048036038101906104fe919061183d565b610a3f565b6040516105109190611671565b60405180910390f35b60007f7965db0b000000000000000000000000000000000000000000000000000000007bffffffffffffffffffffffffffffffffffffffffffffffffffffffff1916827bffffffffffffffffffffffffffffffffffffffffffffffffffffffff1916148061058c575061058b82610ac6565b5b9050919050565b6060600380546105a2906118ac565b80601f01602080910402602001604051908101604052809291908181526020018280546105ce906118ac565b801561061b5780601f106105f05761010080835404028352916020019161061b565b820191906000526020600020905b8154815290600101906020018083116105fe57829003601f168201915b5050505050905090565b600080610630610b30565b905061063d818585610b38565b600191505092915050565b6000600254905090565b60008061065d610b30565b905061066a858285610b4a565b610675858585610bde565b60019150509392505050565b600060056000838152602001908152602001600020600101549050919050565b6106aa82610681565b6106b381610cd2565b6106bd8383610ce6565b50505050565b60006012905090565b6106d4610b30565b73ffffffffffffffffffffffffffffffffffffffff168173ffffffffffffffffffffffffffffffffffffffff1614610738576040517f6697b23200000000000000000000000000000000000000000000000000000000815260040160405180910390fd5b6107428282610dd8565b505050565b7f9f2df0fed2c77648de5860a4cc508cd0818c85b8b8a1ab4ceeef8d981c8956a661077181610cd2565b600073ffffffffffffffffffffffffffffffffffffffff168373ffffffffffffffffffffffffffffffffffffffff16036107e0576040517f08c379a00000000000000000000000000000000000000000000000000000000081526004016107d790611929565b60405180910390fd5b6107ea8383610ecb565b505050565b6108006107fa610b30565b82610f4d565b50565b60008060008373ffffffffffffffffffffffffffffffffffffffff1673ffffffffffffffffffffffffffffffffffffffff168152602001908152602001600020549050919050565b61085d82610857610b30565b83610b4a565b6108678282610f4d565b5050565b60006005600084815260200190815260200160002060000160008373ffffffffffffffffffffffffffffffffffffffff1673ffffffffffffffffffffffffffffffffffffffff16815260200190815260200160002060009054906101000a900460ff16905092915050565b6060600480546108e5906118ac565b80601f0160208091040260200160405190810160405280929190818152602001828054610911906118ac565b801561095e5780601f106109335761010080835404028352916020019161095e565b820191906000526020600020905b81548152906001019060200180831161094157829003601f168201915b5050505050905090565b6000801b81565b60008061097a610b30565b9050610987818585610bde565b600191505092915050565b600034116109d5576040517f08c379a00000000000000000000000000000000000000000000000000000000081526004016109cc90611995565b60405180910390fd5b6000662386f26fc10000346109ea9190611a13565b90506109f63382610ecb565b50565b7f9f2df0fed2c77648de5860a4cc508cd0818c85b8b8a1ab4ceeef8d981c8956a681565b610a2682610681565b610a2f81610cd2565b610a398383610dd8565b50505050565b6000600160008473ffffffffffffffffffffffffffffffffffffffff1673ffffffffffffffffffffffffffffffffffffffff16815260200190815260200160002060008373ffffffffffffffffffffffffffffffffffffffff1673ffffffffffffffffffffffffffffffffffffffff16815260200190815260200160002054905092915050565b60007f01ffc9a7000000000000000000000000000000000000000000000000000000007bffffffffffffffffffffffffffffffffffffffffffffffffffffffff1916827bffffffffffffffffffffffffffffffffffffffffffffffffffffffff1916149050919050565b600033905090565b610b458383836001610fcf565b505050565b6000610b568484610a3f565b90507fffffffffffffffffffffffffffffffffffffffffffffffffffffffffffffffff8114610bd85781811015610bc8578281836040517ffb8f41b2000000000000000000000000000000000000000000000000000000008152600401610bbf93929190611a53565b60405180910390fd5b610bd784848484036000610fcf565b5b50505050565b600073ffffffffffffffffffffffffffffffffffffffff168373ffffffffffffffffffffffffffffffffffffffff1603610c505760006040517f96c6fd1e000000000000000000000000000000000000000000000000000000008152600401610c479190611a8a565b60405180910390fd5b600073ffffffffffffffffffffffffffffffffffffffff168273ffffffffffffffffffffffffffffffffffffffff1603610cc25760006040517fec442f05000000000000000000000000000000000000000000000000000000008152600401610cb99190611a8a565b60405180910390fd5b610ccd8383836111a6565b505050565b610ce381610cde610b30565b6113cb565b50565b6000610cf2838361086b565b610dcd5760016005600085815260200190815260200160002060000160008473ffffffffffffffffffffffffffffffffffffffff1673ffffffffffffffffffffffffffffffffffffffff16815260200190815260200160002060006101000a81548160ff021916908315150217905550610d6a610b30565b73ffffffffffffffffffffffffffffffffffffffff168273ffffffffffffffffffffffffffffffffffffffff16847f2f8788117e7eff1d82e926ec794901d17c78024a50270940304540a733656f0d60405160405180910390a460019050610dd2565b600090505b92915050565b6000610de4838361086b565b15610ec05760006005600085815260200190815260200160002060000160008473ffffffffffffffffffffffffffffffffffffffff1673ffffffffffffffffffffffffffffffffffffffff16815260200190815260200160002060006101000a81548160ff021916908315150217905550610e5d610b30565b73ffffffffffffffffffffffffffffffffffffffff168273ffffffffffffffffffffffffffffffffffffffff16847ff6391f5c32d9c69d2a47ea670b442974b53935d1edc7fd64eb21e047a839171b60405160405180910390a460019050610ec5565b600090505b92915050565b600073ffffffffffffffffffffffffffffffffffffffff168273ffffffffffffffffffffffffffffffffffffffff1603610f3d5760006040517fec442f05000000000000000000000000000000000000000000000000000000008152600401610f349190611a8a565b60405180910390fd5b610f49600083836111a6565b5050565b600073ffffffffffffffffffffffffffffffffffffffff168273ffffffffffffffffffffffffffffffffffffffff1603610fbf5760006040517f96c6fd1e000000000000000000000000000000000000000000000000000000008152600401610fb69190611a8a565b60405180910390fd5b610fcb826000836111a6565b5050565b600073ffffffffffffffffffffffffffffffffffffffff168473ffffffffffffffffffffffffffffffffffffffff16036110415760006040517fe602df050000000000000000000000000000000000000000000000000000000081526004016110389190611a8a565b60405180910390fd5b600073ffffffffffffffffffffffffffffffffffffffff168373ffffffffffffffffffffffffffffffffffffffff16036110b35760006040517f94280d620000000000000000000000000000000000000000000000000000000081526004016110aa9190611a8a565b60405180910390fd5b81600160008673ffffffffffffffffffffffffffffffffffffffff1673ffffffffffffffffffffffffffffffffffffffff16815260200190815260200160002060008573ffffffffffffffffffffffffffffffffffffffff1673ffffffffffffffffffffffffffffffffffffffff1681526020019081526020016000208190555080156111a0578273ffffffffffffffffffffffffffffffffffffffff168473ffffffffffffffffffffffffffffffffffffffff167f8c5be1e5ebec7d5bd14f71427d1e84f3dd0314c0f7b2291e5b200ac8c7c3b925846040516111979190611671565b60405180910390a35b50505050565b600073ffffffffffffffffffffffffffffffffffffffff168373ffffffffffffffffffffffffffffffffffffffff16036111f85780600260008282546111ec9190611aa5565b925050819055506112cb565b60008060008573ffffffffffffffffffffffffffffffffffffffff1673ffffffffffffffffffffffffffffffffffffffff16815260200190815260200160002054905081811015611284578381836040517fe450d38c00000000000000000000000000000000000000000000000000000000815260040161127b93929190611a53565b60405180910390fd5b8181036000808673ffffffffffffffffffffffffffffffffffffffff1673ffffffffffffffffffffffffffffffffffffffff16815260200190815260200160002081905550505b600073ffffffffffffffffffffffffffffffffffffffff168273ffffffffffffffffffffffffffffffffffffffff16036113145780600260008282540392505081905550611361565b806000808473ffffffffffffffffffffffffffffffffffffffff1673ffffffffffffffffffffffffffffffffffffffff168152602001908152602001600020600082825401925050819055505b8173ffffffffffffffffffffffffffffffffffffffff168373ffffffffffffffffffffffffffffffffffffffff167fddf252ad1be2c89b69c2b068fc378daa952ba7f163c4a11628f55a4df523b3ef836040516113be9190611671565b60405180910390a3505050565b6113d5828261086b565b6114185780826040517fe2517d3f00000000000000000000000000000000000000000000000000000000815260040161140f929190611ad9565b60405180910390fd5b5050565b600080fd5b60007fffffffff0000000000000000000000000000000000000000000000000000000082169050919050565b61145681611421565b811461146157600080fd5b50565b6000813590506114738161144d565b92915050565b60006020828403121561148f5761148e61141c565b5b600061149d84828501611464565b91505092915050565b60008115159050919050565b6114bb816114a6565b82525050565b60006020820190506114d660008301846114b2565b92915050565b600081519050919050565b600082825260208201905092915050565b60005b838110156115165780820151818401526020810190506114fb565b60008484015250505050565b6000601f19601f8301169050919050565b600061153e826114dc565b61154881856114e7565b93506115588185602086016114f8565b61156181611522565b840191505092915050565b600060208201905081810360008301526115868184611533565b905092915050565b600073ffffffffffffffffffffffffffffffffffffffff82169050919050565b60006115b98261158e565b9050919050565b6115c9816115ae565b81146115d457600080fd5b50565b6000813590506115e6816115c0565b92915050565b6000819050919050565b6115ff816115ec565b811461160a57600080fd5b50565b60008135905061161c816115f6565b92915050565b600080604083850312156116395761163861141c565b5b6000611647858286016115d7565b92505060206116588582860161160d565b9150509250929050565b61166b816115ec565b82525050565b60006020820190506116866000830184611662565b92915050565b6000806000606084860312156116a5576116a461141c565b5b60006116b3868287016115d7565b93505060206116c4868287016115d7565b92505060406116d58682870161160d565b9150509250925092565b6000819050919050565b6116f2816116df565b81146116fd57600080fd5b50565b60008135905061170f816116e9565b92915050565b60006020828403121561172b5761172a61141c565b5b600061173984828501611700565b91505092915050565b61174b816116df565b82525050565b60006020820190506117666000830184611742565b92915050565b600080604083850312156117835761178261141c565b5b600061179185828601611700565b92505060206117a2858286016115d7565b9150509250929050565b600060ff82169050919050565b6117c2816117ac565b82525050565b60006020820190506117dd60008301846117b9565b92915050565b6000602082840312156117f9576117f861141c565b5b60006118078482850161160d565b91505092915050565b6000602082840312156118265761182561141c565b5b6000611834848285016115d7565b91505092915050565b600080604083850312156118545761185361141c565b5b6000611862858286016115d7565b9250506020611873858286016115d7565b9150509250929050565b7f4e487b7100000000000000000000000000000000000000000000000000000000600052602260045260246000fd5b600060028204905060018216806118c457607f821691505b6020821081036118d7576118d661187d565b5b50919050565b7f43616e6e6f74206d696e7420746f20746865207a65726f206164647265737300600082015250565b6000611913601f836114e7565b915061191e826118dd565b602082019050919050565b6000602082019050818103600083015261194281611906565b9050919050565b7f53656e642045544820746f2062757920746f6b656e7300000000000000000000600082015250565b600061197f6016836114e7565b915061198a82611949565b602082019050919050565b600060208201905081810360008301526119ae81611972565b9050919050565b7f4e487b7100000000000000000000000000000000000000000000000000000000600052601260045260246000fd5b7f4e487b7100000000000000000000000000000000000000000000000000000000600052601160045260246000fd5b6000611a1e826115ec565b9150611a29836115ec565b925082611a3957611a386119b5565b5b828204905092915050565b611a4d816115ae565b82525050565b6000606082019050611a686000830186611a44565b611a756020830185611662565b611a826040830184611662565b949350505050565b6000602082019050611a9f6000830184611a44565b92915050565b6000611ab0826115ec565b9150611abb836115ec565b9250828201905080821115611ad357611ad26119e4565b5b92915050565b6000604082019050611aee6000830185611a44565b611afb6020830184611742565b939250505056fea2646970667358221220b7d4cb53fbbe769f15b1fbcfaed4298f3d4f23336fb8a485b3b24d19f1af7ff564736f6c63430008180033",
    "linkReferences": {},
    "deployedLinkReferences": {}
}