{
  "_format": "hh-sol-artifact-1",
  "contractName": "BethEthToken",
  "sourceName": "contracts/BetEthToken.sol",
  "abi": [
    {
      "inputs": [
        {
          "internalType": "string",
          "name": "name",
          "type": "string"
        },
        {
          "internalType": "string",
          "name": "symbol",
          "type": "string"
        },
        {
          "internalType": "uint256",
          "name": "initialSupply",
          "type": "uint256"
        }
      ],
      "stateMutability": "nonpayable",
      "type": "constructor"
    },
    {
      "inputs": [],
      "name": "AccessControlBadConfirmation",
      "type": "error"
    },
    {
      "inputs": [
        {
          "internalType": "address",
          "name": "account",
          "type": "address"
        },
        {
          "internalType": "bytes32",
          "name": "neededRole",
          "type": "bytes32"
        }
      ],
      "name": "AccessControlUnauthorizedAccount",
      "type": "error"
    },
    {
      "inputs": [
        {
          "internalType": "address",
          "name": "spender",
          "type": "address"
        },
        {
          "internalType": "uint256",
          "name": "allowance",
          "type": "uint256"
        },
        {
          "internalType": "uint256",
          "name": "needed",
          "type": "uint256"
        }
      ],
      "name": "ERC20InsufficientAllowance",
      "type": "error"
    },
    {
      "inputs": [
        {
          "internalType": "address",
          "name": "sender",
          "type": "address"
        },
        {
          "internalType": "uint256",
          "name": "balance",
          "type": "uint256"
        },
        {
          "internalType": "uint256",
          "name": "needed",
          "type": "uint256"
        }
      ],
      "name": "ERC20InsufficientBalance",
      "type": "error"
    },
    {
      "inputs": [
        {
          "internalType": "address",
          "name": "approver",
          "type": "address"
        }
      ],
      "name": "ERC20InvalidApprover",
      "type": "error"
    },
    {
      "inputs": [
        {
          "internalType": "address",
          "name": "receiver",
          "type": "address"
        }
      ],
      "name": "ERC20InvalidReceiver",
      "type": "error"
    },
    {
      "inputs": [
        {
          "internalType": "address",
          "name": "sender",
          "type": "address"
        }
      ],
      "name": "ERC20InvalidSender",
      "type": "error"
    },
    {
      "inputs": [
        {
          "internalType": "address",
          "name": "spender",
          "type": "address"
        }
      ],
      "name": "ERC20InvalidSpender",
      "type": "error"
    },
    {
      "anonymous": false,
      "inputs": [
        {
          "indexed": true,
          "internalType": "address",
          "name": "owner",
          "type": "address"
        },
        {
          "indexed": true,
          "internalType": "address",
          "name": "spender",
          "type": "address"
        },
        {
          "indexed": false,
          "internalType": "uint256",
          "name": "value",
          "type": "uint256"
        }
      ],
      "name": "Approval",
      "type": "event"
    },
    {
      "anonymous": false,
      "inputs": [
        {
          "indexed": true,
          "internalType": "bytes32",
          "name": "role",
          "type": "bytes32"
        },
        {
          "indexed": true,
          "internalType": "bytes32",
          "name": "previousAdminRole",
          "type": "bytes32"
        },
        {
          "indexed": true,
          "internalType": "bytes32",
          "name": "newAdminRole",
          "type": "bytes32"
        }
      ],
      "name": "RoleAdminChanged",
      "type": "event"
    },
    {
      "anonymous": false,
      "inputs": [
        {
          "indexed": true,
          "internalType": "bytes32",
          "name": "role",
          "type": "bytes32"
        },
        {
          "indexed": true,
          "internalType": "address",
          "name": "account",
          "type": "address"
        },
        {
          "indexed": true,
          "internalType": "address",
          "name": "sender",
          "type": "address"
        }
      ],
      "name": "RoleGranted",
      "type": "event"
    },
    {
      "anonymous": false,
      "inputs": [
        {
          "indexed": true,
          "internalType": "bytes32",
          "name": "role",
          "type": "bytes32"
        },
        {
          "indexed": true,
          "internalType": "address",
          "name": "account",
          "type": "address"
        },
        {
          "indexed": true,
          "internalType": "address",
          "name": "sender",
          "type": "address"
        }
      ],
      "name": "RoleRevoked",
      "type": "event"
    },
    {
      "anonymous": false,
      "inputs": [
        {
          "indexed": true,
          "internalType": "address",
          "name": "from",
          "type": "address"
        },
        {
          "indexed": true,
          "internalType": "address",
          "name": "to",
          "type": "address"
        },
        {
          "indexed": false,
          "internalType": "uint256",
          "name": "value",
          "type": "uint256"
        }
      ],
      "name": "Transfer",
      "type": "event"
    },
    {
      "inputs": [],
      "name": "DEFAULT_ADMIN_ROLE",
      "outputs": [
        {
          "internalType": "bytes32",
          "name": "",
          "type": "bytes32"
        }
      ],
      "stateMutability": "view",
      "type": "function"
    },
    {
      "inputs": [],
      "name": "MINTER_ROLE",
      "outputs": [
        {
          "internalType": "bytes32",
          "name": "",
          "type": "bytes32"
        }
      ],
      "stateMutability": "view",
      "type": "function"
    },
    {
      "inputs": [
        {
          "internalType": "address",
          "name": "owner",
          "type": "address"
        },
        {
          "internalType": "address",
          "name": "spender",
          "type": "address"
        }
      ],
      "name": "allowance",
      "outputs": [
        {
          "internalType": "uint256",
          "name": "",
          "type": "uint256"
        }
      ],
      "stateMutability": "view",
      "type": "function"
    },
    {
      "inputs": [
        {
          "internalType": "address",
          "name": "spender",
          "type": "address"
        },
        {
          "internalType": "uint256",
          "name": "value",
          "type": "uint256"
        }
      ],
      "name": "approve",
      "outputs": [
        {
          "internalType": "bool",
          "name": "",
          "type": "bool"
        }
      ],
      "stateMutability": "nonpayable",
      "type": "function"
    },
    {
      "inputs": [
        {
          "internalType": "address",
          "name": "account",
          "type": "address"
        }
      ],
      "name": "balanceOf",
      "outputs": [
        {
          "internalType": "uint256",
          "name": "",
          "type": "uint256"
        }
      ],
      "stateMutability": "view",
      "type": "function"
    },
    {
      "inputs": [
        {
          "internalType": "uint256",
          "name": "value",
          "type": "uint256"
        }
      ],
      "name": "burn",
      "outputs": [],
      "stateMutability": "nonpayable",
      "type": "function"
    },
    {
      "inputs": [
        {
          "internalType": "address",
          "name": "account",
          "type": "address"
        },
        {
          "internalType": "uint256",
          "name": "value",
          "type": "uint256"
        }
      ],
      "name": "burnFrom",
      "outputs": [],
      "stateMutability": "nonpayable",
      "type": "function"
    },
    {
      "inputs": [],
      "name": "buyTokens",
      "outputs": [],
      "stateMutability": "payable",
      "type": "function"
    },
    {
      "inputs": [],
      "name": "decimals",
      "outputs": [
        {
          "internalType": "uint8",
          "name": "",
          "type": "uint8"
        }
      ],
      "stateMutability": "view",
      "type": "function"
    },
    {
      "inputs": [
        {
          "internalType": "bytes32",
          "name": "role",
          "type": "bytes32"
        }
      ],
      "name": "getRoleAdmin",
      "outputs": [
        {
          "internalType": "bytes32",
          "name": "",
          "type": "bytes32"
        }
      ],
      "stateMutability": "view",
      "type": "function"
    },
    {
      "inputs": [
        {
          "internalType": "bytes32",
          "name": "role",
          "type": "bytes32"
        },
        {
          "internalType": "address",
          "name": "account",
          "type": "address"
        }
      ],
      "name": "grantRole",
      "outputs": [],
      "stateMutability": "nonpayable",
      "type": "function"
    },
    {
      "inputs": [
        {
          "internalType": "bytes32",
          "name": "role",
          "type": "bytes32"
        },
        {
          "internalType": "address",
          "name": "account",
          "type": "address"
        }
      ],
      "name": "hasRole",
      "outputs": [
        {
          "internalType": "bool",
          "name": "",
          "type": "bool"
        }
      ],
      "stateMutability": "view",
      "type": "function"
    },
    {
      "inputs": [
        {
          "internalType": "address",
          "name": "to",
          "type": "address"
        },
        {
          "internalType": "uint256",
          "name": "amount",
          "type": "uint256"
        }
      ],
      "name": "mint",
      "outputs": [],
      "stateMutability": "nonpayable",
      "type": "function"
    },
    {
      "inputs": [],
      "name": "name",
      "outputs": [
        {
          "internalType": "string",
          "name": "",
          "type": "string"
        }
      ],
      "stateMutability": "view",
      "type": "function"
    },
    {
      "inputs": [
        {
          "internalType": "bytes32",
          "name": "role",
          "type": "bytes32"
        },
        {
          "internalType": "address",
          "name": "callerConfirmation",
          "type": "address"
        }
      ],
      "name": "renounceRole",
      "outputs": [],
      "stateMutability": "nonpayable",
      "type": "function"
    },
    {
      "inputs": [
        {
          "internalType": "bytes32",
          "name": "role",
          "type": "bytes32"
        },
        {
          "internalType": "address",
          "name": "account",
          "type": "address"
        }
      ],
      "name": "revokeRole",
      "outputs": [],
      "stateMutability": "nonpayable",
      "type": "function"
    },
    {
      "inputs": [
        {
          "internalType": "bytes4",
          "name": "interfaceId",
          "type": "bytes4"
        }
      ],
      "name": "supportsInterface",
      "outputs": [
        {
          "internalType": "bool",
          "name": "",
          "type": "bool"
        }
      ],
      "stateMutability": "view",
      "type": "function"
    },
    {
      "inputs": [],
      "name": "symbol",
      "outputs": [
        {
          "internalType": "string",
          "name": "",
          "type": "string"
        }
      ],
      "stateMutability": "view",
      "type": "function"
    },
    {
      "inputs": [],
      "name": "totalSupply",
      "outputs": [
        {
          "internalType": "uint256",
          "name": "",
          "type": "uint256"
        }
      ],
      "stateMutability": "view",
      "type": "function"
    },
    {
      "inputs": [
        {
          "internalType": "address",
          "name": "to",
          "type": "address"
        },
        {
          "internalType": "uint256",
          "name": "value",
          "type": "uint256"
        }
      ],
      "name": "transfer",
      "outputs": [
        {
          "internalType": "bool",
          "name": "",
          "type": "bool"
        }
      ],
      "stateMutability": "nonpayable",
      "type": "function"
    },
    {
      "inputs": [
        {
          "internalType": "address",
          "name": "from",
          "type": "address"
        },
        {
          "internalType": "address",
          "name": "to",
          "type": "address"
        },
        {
          "internalType": "uint256",
          "name": "value",
          "type": "uint256"
        }
      ],
      "name": "transferFrom",
      "outputs": [
        {
          "internalType": "bool",
          "name": "",
          "type": "bool"
        }
      ],
      "stateMutability": "nonpayable",
      "type": "function"
    }
  ],
  "bytecode": "0x60806040523480156200001157600080fd5b5060405162002706380380620027068339818101604052810190620000379190620006c5565b828281600390816200004a9190620009a0565b5080600490816200005c9190620009a0565b505050620000713382620000c360201b60201c565b620000866000801b336200015060201b60201c565b50620000b97f9f2df0fed2c77648de5860a4cc508cd0818c85b8b8a1ab4ceeef8d981c8956a6336200015060201b60201c565b5050505062000bbe565b600073ffffffffffffffffffffffffffffffffffffffff168273ffffffffffffffffffffffffffffffffffffffff1603620001385760006040517fec442f050000000000000000000000000000000000000000000000000000000081526004016200012f919062000acc565b60405180910390fd5b6200014c600083836200025460201b60201c565b5050565b60006200016483836200048460201b60201c565b620002495760016005600085815260200190815260200160002060000160008473ffffffffffffffffffffffffffffffffffffffff1673ffffffffffffffffffffffffffffffffffffffff16815260200190815260200160002060006101000a81548160ff021916908315150217905550620001e5620004ef60201b60201c565b73ffffffffffffffffffffffffffffffffffffffff168273ffffffffffffffffffffffffffffffffffffffff16847f2f8788117e7eff1d82e926ec794901d17c78024a50270940304540a733656f0d60405160405180910390a4600190506200024e565b600090505b92915050565b600073ffffffffffffffffffffffffffffffffffffffff168373ffffffffffffffffffffffffffffffffffffffff1603620002aa5780600260008282546200029d919062000b18565b9250508190555062000380565b60008060008573ffffffffffffffffffffffffffffffffffffffff1673ffffffffffffffffffffffffffffffffffffffff1681526020019081526020016000205490508181101562000339578381836040517fe450d38c000000000000000000000000000000000000000000000000000000008152600401620003309392919062000b64565b60405180910390fd5b8181036000808673ffffffffffffffffffffffffffffffffffffffff1673ffffffffffffffffffffffffffffffffffffffff16815260200190815260200160002081905550505b600073ffffffffffffffffffffffffffffffffffffffff168273ffffffffffffffffffffffffffffffffffffffff1603620003cb578060026000828254039250508190555062000418565b806000808473ffffffffffffffffffffffffffffffffffffffff1673ffffffffffffffffffffffffffffffffffffffff168152602001908152602001600020600082825401925050819055505b8173ffffffffffffffffffffffffffffffffffffffff168373ffffffffffffffffffffffffffffffffffffffff167fddf252ad1be2c89b69c2b068fc378daa952ba7f163c4a11628f55a4df523b3ef8360405162000477919062000ba1565b60405180910390a3505050565b60006005600084815260200190815260200160002060000160008373ffffffffffffffffffffffffffffffffffffffff1673ffffffffffffffffffffffffffffffffffffffff16815260200190815260200160002060009054906101000a900460ff16905092915050565b600033905090565b6000604051905090565b600080fd5b600080fd5b600080fd5b600080fd5b6000601f19601f8301169050919050565b7f4e487b7100000000000000000000000000000000000000000000000000000000600052604160045260246000fd5b620005608262000515565b810181811067ffffffffffffffff8211171562000582576200058162000526565b5b80604052505050565b600062000597620004f7565b9050620005a5828262000555565b919050565b600067ffffffffffffffff821115620005c857620005c762000526565b5b620005d38262000515565b9050602081019050919050565b60005b8381101562000600578082015181840152602081019050620005e3565b60008484015250505050565b6000620006236200061d84620005aa565b6200058b565b90508281526020810184848401111562000642576200064162000510565b5b6200064f848285620005e0565b509392505050565b600082601f8301126200066f576200066e6200050b565b5b8151620006818482602086016200060c565b91505092915050565b6000819050919050565b6200069f816200068a565b8114620006ab57600080fd5b50565b600081519050620006bf8162000694565b92915050565b600080600060608486031215620006e157620006e062000501565b5b600084015167ffffffffffffffff81111562000702576200070162000506565b5b620007108682870162000657565b935050602084015167ffffffffffffffff81111562000734576200073362000506565b5b620007428682870162000657565b92505060406200075586828701620006ae565b9150509250925092565b600081519050919050565b7f4e487b7100000000000000000000000000000000000000000000000000000000600052602260045260246000fd5b60006002820490506001821680620007b257607f821691505b602082108103620007c857620007c76200076a565b5b50919050565b60008190508160005260206000209050919050565b60006020601f8301049050919050565b600082821b905092915050565b600060088302620008327fffffffffffffffffffffffffffffffffffffffffffffffffffffffffffffffff82620007f3565b6200083e8683620007f3565b95508019841693508086168417925050509392505050565b6000819050919050565b6000620008816200087b62000875846200068a565b62000856565b6200068a565b9050919050565b6000819050919050565b6200089d8362000860565b620008b5620008ac8262000888565b84845462000800565b825550505050565b600090565b620008cc620008bd565b620008d981848462000892565b505050565b5b818110156200090157620008f5600082620008c2565b600181019050620008df565b5050565b601f82111562000950576200091a81620007ce565b6200092584620007e3565b8101602085101562000935578190505b6200094d6200094485620007e3565b830182620008de565b50505b505050565b600082821c905092915050565b6000620009756000198460080262000955565b1980831691505092915050565b600062000990838362000962565b9150826002028217905092915050565b620009ab826200075f565b67ffffffffffffffff811115620009c757620009c662000526565b5b620009d3825462000799565b620009e082828562000905565b600060209050601f83116001811462000a18576000841562000a03578287015190505b62000a0f858262000982565b86555062000a7f565b601f19841662000a2886620007ce565b60005b8281101562000a525784890151825560018201915060208501945060208101905062000a2b565b8683101562000a72578489015162000a6e601f89168262000962565b8355505b6001600288020188555050505b505050505050565b600073ffffffffffffffffffffffffffffffffffffffff82169050919050565b600062000ab48262000a87565b9050919050565b62000ac68162000aa7565b82525050565b600060208201905062000ae3600083018462000abb565b92915050565b7f4e487b7100000000000000000000000000000000000000000000000000000000600052601160045260246000fd5b600062000b25826200068a565b915062000b32836200068a565b925082820190508082111562000b4d5762000b4c62000ae9565b5b92915050565b62000b5e816200068a565b82525050565b600060608201905062000b7b600083018662000abb565b62000b8a602083018562000b53565b62000b99604083018462000b53565b949350505050565b600060208201905062000bb8600083018462000b53565b92915050565b611b388062000bce6000396000f3fe60806040526004361061012a5760003560e01c806342966c68116100ab578063a217fddf1161006f578063a217fddf14610416578063a9059cbb14610441578063d0febe4c1461047e578063d539139314610488578063d547741f146104b3578063dd62ed3e146104dc5761012a565b806342966c681461031f57806370a082311461034857806379cc67901461038557806391d14854146103ae57806395d89b41146103eb5761012a565b8063248a9ca3116100f2578063248a9ca31461023c5780632f2ff15d14610279578063313ce567146102a257806336568abe146102cd57806340c10f19146102f65761012a565b806301ffc9a71461012f57806306fdde031461016c578063095ea7b31461019757806318160ddd146101d457806323b872dd146101ff575b600080fd5b34801561013b57600080fd5b5061015660048036038101906101519190611479565b610519565b60405161016391906114c1565b60405180910390f35b34801561017857600080fd5b50610181610593565b60405161018e919061156c565b60405180910390f35b3480156101a357600080fd5b506101be60048036038101906101b99190611622565b610625565b6040516101cb91906114c1565b60405180910390f35b3480156101e057600080fd5b506101e9610648565b6040516101f69190611671565b60405180910390f35b34801561020b57600080fd5b506102266004803603810190610221919061168c565b610652565b60405161023391906114c1565b60405180910390f35b34801561024857600080fd5b50610263600480360381019061025e9190611715565b610681565b6040516102709190611751565b60405180910390f35b34801561028557600080fd5b506102a0600480360381019061029b919061176c565b6106a1565b005b3480156102ae57600080fd5b506102b76106c3565b6040516102c491906117c8565b60405180910390f35b3480156102d957600080fd5b506102f460048036038101906102ef919061176c565b6106cc565b005b34801561030257600080fd5b5061031d60048036038101906103189190611622565b610747565b005b34801561032b57600080fd5b50610346600480360381019061034191906117e3565b6107ef565b005b34801561035457600080fd5b5061036f600480360381019061036a9190611810565b610803565b60405161037c9190611671565b60405180910390f35b34801561039157600080fd5b506103ac60048036038101906103a79190611622565b61084b565b005b3480156103ba57600080fd5b506103d560048036038101906103d0919061176c565b61086b565b6040516103e291906114c1565b60405180910390f35b3480156103f757600080fd5b506104006108d6565b60405161040d919061156c565b60405180910390f35b34801561042257600080fd5b5061042b610968565b6040516104389190611751565b60405180910390f35b34801561044d57600080fd5b5061046860048036038101906104639190611622565b61096f565b60405161047591906114c1565b60405180910390f35b610486610992565b005b34801561049457600080fd5b5061049d6109f9565b6040516104aa9190611751565b60405180910390f35b3480156104bf57600080fd5b506104da60048036038101906104d5919061176c565b610a1d565b005b3480156104e857600080fd5b5061050360048036038101906104fe919061183d565b610a3f565b6040516105109190611671565b60405180910390f35b60007f7965db0b000000000000000000000000000000000000000000000000000000007bffffffffffffffffffffffffffffffffffffffffffffffffffffffff1916827bffffffffffffffffffffffffffffffffffffffffffffffffffffffff1916148061058c575061058b82610ac6565b5b9050919050565b6060600380546105a2906118ac565b80601f01602080910402602001604051908101604052809291908181526020018280546105ce906118ac565b801561061b5780601f106105f05761010080835404028352916020019161061b565b820191906000526020600020905b8154815290600101906020018083116105fe57829003601f168201915b5050505050905090565b600080610630610b30565b905061063d818585610b38565b600191505092915050565b6000600254905090565b60008061065d610b30565b905061066a858285610b4a565b610675858585610bde565b60019150509392505050565b600060056000838152602001908152602001600020600101549050919050565b6106aa82610681565b6106b381610cd2565b6106bd8383610ce6565b50505050565b60006012905090565b6106d4610b30565b73ffffffffffffffffffffffffffffffffffffffff168173ffffffffffffffffffffffffffffffffffffffff1614610738576040517f6697b23200000000000000000000000000000000000000000000000000000000815260040160405180910390fd5b6107428282610dd8565b505050565b7f9f2df0fed2c77648de5860a4cc508cd0818c85b8b8a1ab4ceeef8d981c8956a661077181610cd2565b600073ffffffffffffffffffffffffffffffffffffffff168373ffffffffffffffffffffffffffffffffffffffff16036107e0576040517f08c379a00000000000000000000000000000000000000000000000000000000081526004016107d790611929565b60405180910390fd5b6107ea8383610ecb565b505050565b6108006107fa610b30565b82610f4d565b50565b60008060008373ffffffffffffffffffffffffffffffffffffffff1673ffffffffffffffffffffffffffffffffffffffff168152602001908152602001600020549050919050565b61085d82610857610b30565b83610b4a565b6108678282610f4d565b5050565b60006005600084815260200190815260200160002060000160008373ffffffffffffffffffffffffffffffffffffffff1673ffffffffffffffffffffffffffffffffffffffff16815260200190815260200160002060009054906101000a900460ff16905092915050565b6060600480546108e5906118ac565b80601f0160208091040260200160405190810160405280929190818152602001828054610911906118ac565b801561095e5780601f106109335761010080835404028352916020019161095e565b820191906000526020600020905b81548152906001019060200180831161094157829003601f168201915b5050505050905090565b6000801b81565b60008061097a610b30565b9050610987818585610bde565b600191505092915050565b600034116109d5576040517f08c379a00000000000000000000000000000000000000000000000000000000081526004016109cc90611995565b60405180910390fd5b6000662386f26fc10000346109ea9190611a13565b90506109f63382610ecb565b50565b7f9f2df0fed2c77648de5860a4cc508cd0818c85b8b8a1ab4ceeef8d981c8956a681565b610a2682610681565b610a2f81610cd2565b610a398383610dd8565b50505050565b6000600160008473ffffffffffffffffffffffffffffffffffffffff1673ffffffffffffffffffffffffffffffffffffffff16815260200190815260200160002060008373ffffffffffffffffffffffffffffffffffffffff1673ffffffffffffffffffffffffffffffffffffffff16815260200190815260200160002054905092915050565b60007f01ffc9a7000000000000000000000000000000000000000000000000000000007bffffffffffffffffffffffffffffffffffffffffffffffffffffffff1916827bffffffffffffffffffffffffffffffffffffffffffffffffffffffff1916149050919050565b600033905090565b610b458383836001610fcf565b505050565b6000610b568484610a3f565b90507fffffffffffffffffffffffffffffffffffffffffffffffffffffffffffffffff8114610bd85781811015610bc8578281836040517ffb8f41b2000000000000000000000000000000000000000000000000000000008152600401610bbf93929190611a53565b60405180910390fd5b610bd784848484036000610fcf565b5b50505050565b600073ffffffffffffffffffffffffffffffffffffffff168373ffffffffffffffffffffffffffffffffffffffff1603610c505760006040517f96c6fd1e000000000000000000000000000000000000000000000000000000008152600401610c479190611a8a565b60405180910390fd5b600073ffffffffffffffffffffffffffffffffffffffff168273ffffffffffffffffffffffffffffffffffffffff1603610cc25760006040517fec442f05000000000000000000000000000000000000000000000000000000008152600401610cb99190611a8a565b60405180910390fd5b610ccd8383836111a6565b505050565b610ce381610cde610b30565b6113cb565b50565b6000610cf2838361086b565b610dcd5760016005600085815260200190815260200160002060000160008473ffffffffffffffffffffffffffffffffffffffff1673ffffffffffffffffffffffffffffffffffffffff16815260200190815260200160002060006101000a81548160ff021916908315150217905550610d6a610b30565b73ffffffffffffffffffffffffffffffffffffffff168273ffffffffffffffffffffffffffffffffffffffff16847f2f8788117e7eff1d82e926ec794901d17c78024a50270940304540a733656f0d60405160405180910390a460019050610dd2565b600090505b92915050565b6000610de4838361086b565b15610ec05760006005600085815260200190815260200160002060000160008473ffffffffffffffffffffffffffffffffffffffff1673ffffffffffffffffffffffffffffffffffffffff16815260200190815260200160002060006101000a81548160ff021916908315150217905550610e5d610b30565b73ffffffffffffffffffffffffffffffffffffffff168273ffffffffffffffffffffffffffffffffffffffff16847ff6391f5c32d9c69d2a47ea670b442974b53935d1edc7fd64eb21e047a839171b60405160405180910390a460019050610ec5565b600090505b92915050565b600073ffffffffffffffffffffffffffffffffffffffff168273ffffffffffffffffffffffffffffffffffffffff1603610f3d5760006040517fec442f05000000000000000000000000000000000000000000000000000000008152600401610f349190611a8a565b60405180910390fd5b610f49600083836111a6565b5050565b600073ffffffffffffffffffffffffffffffffffffffff168273ffffffffffffffffffffffffffffffffffffffff1603610fbf5760006040517f96c6fd1e000000000000000000000000000000000000000000000000000000008152600401610fb69190611a8a565b60405180910390fd5b610fcb826000836111a6565b5050565b600073ffffffffffffffffffffffffffffffffffffffff168473ffffffffffffffffffffffffffffffffffffffff16036110415760006040517fe602df050000000000000000000000000000000000000000000000000000000081526004016110389190611a8a565b60405180910390fd5b600073ffffffffffffffffffffffffffffffffffffffff168373ffffffffffffffffffffffffffffffffffffffff16036110b35760006040517f94280d620000000000000000000000000000000000000000000000000000000081526004016110aa9190611a8a565b60405180910390fd5b81600160008673ffffffffffffffffffffffffffffffffffffffff1673ffffffffffffffffffffffffffffffffffffffff16815260200190815260200160002060008573ffffffffffffffffffffffffffffffffffffffff1673ffffffffffffffffffffffffffffffffffffffff1681526020019081526020016000208190555080156111a0578273ffffffffffffffffffffffffffffffffffffffff168473ffffffffffffffffffffffffffffffffffffffff167f8c5be1e5ebec7d5bd14f71427d1e84f3dd0314c0f7b2291e5b200ac8c7c3b925846040516111979190611671565b60405180910390a35b50505050565b600073ffffffffffffffffffffffffffffffffffffffff168373ffffffffffffffffffffffffffffffffffffffff16036111f85780600260008282546111ec9190611aa5565b925050819055506112cb565b60008060008573ffffffffffffffffffffffffffffffffffffffff1673ffffffffffffffffffffffffffffffffffffffff16815260200190815260200160002054905081811015611284578381836040517fe450d38c00000000000000000000000000000000000000000000000000000000815260040161127b93929190611a53565b60405180910390fd5b8181036000808673ffffffffffffffffffffffffffffffffffffffff1673ffffffffffffffffffffffffffffffffffffffff16815260200190815260200160002081905550505b600073ffffffffffffffffffffffffffffffffffffffff168273ffffffffffffffffffffffffffffffffffffffff16036113145780600260008282540392505081905550611361565b806000808473ffffffffffffffffffffffffffffffffffffffff1673ffffffffffffffffffffffffffffffffffffffff168152602001908152602001600020600082825401925050819055505b8173ffffffffffffffffffffffffffffffffffffffff168373ffffffffffffffffffffffffffffffffffffffff167fddf252ad1be2c89b69c2b068fc378daa952ba7f163c4a11628f55a4df523b3ef836040516113be9190611671565b60405180910390a3505050565b6113d5828261086b565b6114185780826040517fe2517d3f00000000000000000000000000000000000000000000000000000000815260040161140f929190611ad9565b60405180910390fd5b5050565b600080fd5b60007fffffffff0000000000000000000000000000000000000000000000000000000082169050919050565b61145681611421565b811461146157600080fd5b50565b6000813590506114738161144d565b92915050565b60006020828403121561148f5761148e61141c565b5b600061149d84828501611464565b91505092915050565b60008115159050919050565b6114bb816114a6565b82525050565b60006020820190506114d660008301846114b2565b92915050565b600081519050919050565b600082825260208201905092915050565b60005b838110156115165780820151818401526020810190506114fb565b60008484015250505050565b6000601f19601f8301169050919050565b600061153e826114dc565b61154881856114e7565b93506115588185602086016114f8565b61156181611522565b840191505092915050565b600060208201905081810360008301526115868184611533565b905092915050565b600073ffffffffffffffffffffffffffffffffffffffff82169050919050565b60006115b98261158e565b9050919050565b6115c9816115ae565b81146115d457600080fd5b50565b6000813590506115e6816115c0565b92915050565b6000819050919050565b6115ff816115ec565b811461160a57600080fd5b50565b60008135905061161c816115f6565b92915050565b600080604083850312156116395761163861141c565b5b6000611647858286016115d7565b92505060206116588582860161160d565b9150509250929050565b61166b816115ec565b82525050565b60006020820190506116866000830184611662565b92915050565b6000806000606084860312156116a5576116a461141c565b5b60006116b3868287016115d7565b93505060206116c4868287016115d7565b92505060406116d58682870161160d565b9150509250925092565b6000819050919050565b6116f2816116df565b81146116fd57600080fd5b50565b60008135905061170f816116e9565b92915050565b60006020828403121561172b5761172a61141c565b5b600061173984828501611700565b91505092915050565b61174b816116df565b82525050565b60006020820190506117666000830184611742565b92915050565b600080604083850312156117835761178261141c565b5b600061179185828601611700565b92505060206117a2858286016115d7565b9150509250929050565b600060ff82169050919050565b6117c2816117ac565b82525050565b60006020820190506117dd60008301846117b9565b92915050565b6000602082840312156117f9576117f861141c565b5b60006118078482850161160d565b91505092915050565b6000602082840312156118265761182561141c565b5b6000611834848285016115d7565b91505092915050565b600080604083850312156118545761185361141c565b5b6000611862858286016115d7565b9250506020611873858286016115d7565b9150509250929050565b7f4e487b7100000000000000000000000000000000000000000000000000000000600052602260045260246000fd5b600060028204905060018216806118c457607f821691505b6020821081036118d7576118d661187d565b5b50919050565b7f43616e6e6f74206d696e7420746f20746865207a65726f206164647265737300600082015250565b6000611913601f836114e7565b915061191e826118dd565b602082019050919050565b6000602082019050818103600083015261194281611906565b9050919050565b7f53656e642045544820746f2062757920746f6b656e7300000000000000000000600082015250565b600061197f6016836114e7565b915061198a82611949565b602082019050919050565b600060208201905081810360008301526119ae81611972565b9050919050565b7f4e487b7100000000000000000000000000000000000000000000000000000000600052601260045260246000fd5b7f4e487b7100000000000000000000000000000000000000000000000000000000600052601160045260246000fd5b6000611a1e826115ec565b9150611a29836115ec565b925082611a3957611a386119b5565b5b828204905092915050565b611a4d816115ae565b82525050565b6000606082019050611a686000830186611a44565b611a756020830185611662565b611a826040830184611662565b949350505050565b6000602082019050611a9f6000830184611a44565b92915050565b6000611ab0826115ec565b9150611abb836115ec565b9250828201905080821115611ad357611ad26119e4565b5b92915050565b6000604082019050611aee6000830185611a44565b611afb6020830184611742565b939250505056fea2646970667358221220b7d4cb53fbbe769f15b1fbcfaed4298f3d4f23336fb8a485b3b24d19f1af7ff564736f6c63430008180033",
  "linkReferences": {},
  "deployedLinkReferences": {}
}